:1000000002077B02B483D2A82222FF021270E70902
:10001000F608DFFA8046E709F208DFFA803E8882B8
:100020008C83E709F0A3DFFA8032E309F608DFFAF0
:100030008078E309F208DFFA807088828C83E30914
:10004000F0A3DFFA806489828A83E0A3F608DFFAEE
:10005000805889828A83E0A3F208DFFA804C80D23C
:1000600080FA80C680D4806980F28033801080A6B8
:1000700080EA809A80A880DA80E280CA8033898210
:100080008A83ECFAE493A3C8C582C8CCC583CCF0BC
:10009000A3C8C582C8CCC583CCDFE9DEE7800D8963
:1000A000828A83E493A3F608DFF9ECFAA9F0EDFB6A
:1000B0002289828A83ECFAE0A3C8C582C8CCC583B2
:1000C000CCF0A3C8C582C8CCC583CCDFEADEE8800B
:1000D000DB89828A83E493A3F208DFF980CC88F07D
:1000E000EF60010E4E60C388F0ED2402B4040050AE
:1000F000B9F582EB2402B4040050AF2323458223D8
:1001000090005E73BB010689828A83E0225002E779
:1001100022BBFE02E32289828A83E49322BB010C84
:10012000E58229F582E5833AF583E0225006E92548
:1001300082F8E622BBFE06E92582F8E222E5822962
:10014000F582E5833AF583E49322BB010689828A2E
:1001500083F0225002F722BBFE01F322F8BB010D0F
:10016000E58229F582E5833AF583E8F0225006E935
:100170002582C8F622BBFE05E92582C8F222EF8D52
:10018000F0A4A8F0CF8CF0A428CE8DF0A42EFE22EF
:10019000BC000BBE0029EF8DF084FFADF022E4CC53
:1001A000F875F008EF2FFFEE33FEEC33FCEE9DEC1C
:1001B000984005FCEE9DFE0FD5F0E9E4CEFD22ED62
:1001C000F8F5F0EE8420D21CFEADF075F008EF2FAC
:1001D000FFED33FD4007985006D5F0F222C398FD9D
:1001E0000FD5F0EA22C5F0F8A3E028F0C5F0F8E555
:1001F00082158270021583E038F022BB010A8982E1
:100200008A83E0F5F0A3E022500687F009E719227F
:10021000BBFE07E3F5F009E3192289828A83E493A0
:10022000F5F074019322BB010A89828A83F0E5F01C
:10023000A3F0225006F709A7F01922BBFE06F3E54A
:10024000F009F31922E88FF0A4CC8BF0A42CFCE980
:100250008EF0A42CFC8AF0EDA42CFCEA8EF0A4CD48
:10026000A8F08BF0A42DCC3825F0FDE98FF0A42C5C
:10027000CD35F0FCEB8EF0A4FEA9F0EB8FF0A4CF0F
:10028000C5F02ECD39FEE43CFCEAA42DCE35F0FDC0
:10029000E43CFC2275F008758200EF2FFFEE33FE80
:1002A000CD33CDCC33CCC58233C5829BED9AEC994E
:1002B000E58298400CF582EE9BFEED9AFDEC99FCF0
:1002C0000FD5F0D6E4CEFBE4CDFAE4CCF9A8822237
:1002D000B800C1B90059BA002DEC8BF084CFCECD57
:1002E000FCE5F0CBF97818EF2FFFEE33FEED33FD90
:1002F000EC33FCEB33FB10D703994004EB99FB0F75
:10030000D8E5E4F9FA227818EF2FFFEE33FEED334B
:10031000FDEC33FCC933C910D7059BE99A4007ECC3
:100320009BFCE99AF90FD8E0E4C9FAE4CCFB22750A
:10033000F010EF2FFFEE33FEED33FDCC33CCC8339E
:10034000C810D7079BEC9AE899400AED9BFDEC9A00
:10035000FCE899F80FD5F0DAE4CDFBE4CCFAE4C878
:10036000F922EB9FF5F0EA9E42F0E99D42F0E89C0D
:1003700045F022E8600FECC313FCED13FDEE13FE15
:10038000EF13FFD8F122E8600FEFC333FFEE33FE27
:10039000ED33FDEC33FCD8F122A8828583F0D083C5
:1003A000D0821203B01203B01203B01203B0E47390
:1003B000E493A3C583C5F0C583C8C582C8F0A3C5AF
:1003C00083C5F0C583C8C582C822F5F0C582A4C51F
:1003D00082C5F0C583A42583F58322D083D082F81B
:1003E000E4937012740193700DA3A393F8740193B6
:1003F000F5828883E4737402936860EFA3A3A380FB
:10040000DFEC8EF0A4CCC5F0CCCDF8EFA4CEC5F0D7
:100410002DFDE43CFCE8A42EC8C5F03DFDE43CFC09
:10042000EFA4FFE5F028FEE43DFDE43CFC22E3F50B
:10043000F009E208B5F06BDFF58067E3F5F009E657
:1004400008B5F05EDFF5805A87F009E608B5F0528E
:10045000DFF6804E87F009E208B5F046DFF680420D
:1004600088828C8387F009E0A3B5F036DFF680320E
:1004700088828C8387F009E493A3B5F025DFF580AB
:100480002188828C83E3F5F009E0A3B5F014DFF551
:10049000801088828C83E3F5F009E493A3B5F00221
:1004A000DFF402055D808780E9809080D4803E8003
:1004B00015806E807E809D80B7808D80A380518066
:1004C00074803C02056989828A83ECFAE493F5F032
:1004D000A3C8C582C8CCC583CCE493A3C8C582C8D1
:1004E000CCC583CCB5F076DFE3DEE1807089828A0B
:1004F00083E493F5F0A3E208B5F062DFF4805E894F
:10050000828A83E0F5F0A3E608B5F051DFF5804D6F
:1005100089828A83E0F5F0A3E208B5F040DFF58038
:100520003C89828A83E493F5F0A3E608B5F02EDFD8
:10053000F4802A8002805789828A83ECFAE493F55A
:10054000F0A3C8C582C8CCC583CCE0A3C8C582C807
:10055000CCC583CCB5F006DFE4DEE280007FFFB5DA
:10056000F0020F2240027F012289828A83ECFAE0A6
:10057000F5F0A3C8C582C8CCC583CCE0A3C8C582AA
:10058000C8CCC583CCB5F0D5DFE5DEE380CF89826A
:100590008A83ECFAE0F5F0A3C8C582C8CCC583CC49
:1005A000E493A3C8C582C8CCC583CCB5F0AFDFE463
:1005B000DEE280A988F0EF60010E4E60ABED240210
:1005C000B404005098F582EB2402B40400508E234A
:1005D000234582239004A573EF4E6012EF60010E55
:1005E000EDBB010B89828A83F0A3DFFCDEFA22894E
:1005F000F05007F709DFFCA9F022BBFEFCF309DF8E
:10060000FCA9F0224104A80041034E015C02DE5A1D
:100610009001040000000000000000000000000045
:10062000000000000000000000000041034F015CDA
:1006300002FB5A908104000000000000000000004E
:100640000000000000000000000000000000440264
:10065000D40000000044035E0A280011410350004A
:100660004402DA00000000440336000000004402A7
:10067000D00000000048032E000000000000000031
:100680004202D8FF014203510001440354050C000B
:100690000044032A1A0000005002C00000006C0051
:1006A000000000000000003B000051410319044419
:1006B000035A000001FF42028D00004102BA00010E
:1006C0001700011800C100024E7A00025084004257
:1006D00003F30000604803AB291F4774FFFFFFFFCF
:1006E00000291F4774FFFFFFFF00291F4774FFFF0A
:1006F000FFFF00291F4774FFFFFFFF00291F4774FA
:10070000FFFFFFFF00291F4774FFFFFFFF00291FA6
:100710004774FFFFFFFF00291F4774FFFFFFFF0023
:100720006020038B0002FFFF0006FFFF000AFFFFAF
:10073000000AFFFF0000FFFF0000FFFF0000FFFFB7
:100740000000FFFF4403FB0000100241036800416A
:100750000362044603F50000000000004103630447
:10076000440364FFFFFF004804A0000000000000F5
:10077000000002527EE002547EC000787FE4F6D88A
:10078000FD9001007F007E04E4F0A3DFFCDEFA753B
:10079000815C0207D0020AAAE493A3F8E493A34081
:1007A00003F68001F208DFF48029E493A3F85407EC
:1007B000240CC8C333C4540F4420C8834004F456E7
:1007C000800146F6DFE4800B01020408102040801F
:1007D000900604E47E019360BCA3FF543F30E5091A
:1007E000541FFEE493A360010ECF54C025E060A81F
:1007F00040B8E493A3FAE493A3F8E493A3C8C582B2
:10080000C8CAC583CAF0A3C8C582C8CAC583CADF1F
:10081000E9DEE780BE1201010211000008291F0075
:100820000000000102030109021200010104C0F8E6
:10083000090400000011000007050F510002141008
:100840000400A438E86D7A169D23A8AE57BD200693
:10085000E4BC30100D0501000000000000000000A5
:100860000000000000000000000000000000000088
:10087000000000000000000000002101000001FF56
:10088000000608100F0000000000050F51000214C0
:10089000100400A438E86D7A169D23A8AE57BD2039
:1008A00006E4BC30100D050100000003000000004C
:1008B0000000000000000000000000000000000038
:1008C0000000000000000000000000210100000105
:1008D000FF000608100F00000000000100040309DB
:1008E00004140341006E0061006C006F0067006932
:1008F00000780000003E03550053004200200054E1
:10090000007900700065002D00430020004400695C
:100910000067006900740061006C0020004100560F
:1009200000200041006400610070007400650072E6
:100930000000001C0332003000310035003000316F
:100940000041004E005800300030003100000032FD
:1009500003420069006C006C0062006F006100726D
:10096000006400200043006F006E006600690067AD
:1009700000750072006100740069006F006E000075
:10098000004A0368007400740070003A002F002FC2
:1009900000680065006C0070002E00760065007332
:1009A0000061002E006F00720067002F006400706D
:1009B000002D007500730062002D00740079007036
:1009C0000065002D0063002F0000004A03680074DA
:1009D00000740070003A002F002F00680065006C62
:1009E0000070002E0076006500730061002E006F1D
:1009F00000720067002F00640070002D0075007306
:100A00000062002D0074007900700065002D006305
:100A1000002F000000320355005300420020004226
:100A20000069006C006C0062006F0061007200647D
:100A300000200069006E00740065007200660061AD
:100A400000630065000000202C012044DF20569840
:100A5000205710205B85205C8020618920698820D8
:100A60006BF9206EDB2072FF20746820750420C9AA
:100A70002D5283E55284CB529DC152B4CB8E60146B
:100A80008E78008EA8068EAACB8EB1728EB2238E7F
:100A900000018E0105291F4774FFFFFFFF010001C0
:100AA000FFFF0A28001101000000F1DF120006C25A
:100AB00016D2AF12B38012B3A112B6A2F1CEF1BD1D
:100AC000F1EF901000E493907EB4F0901001E49365
:100AD000907EB5F051DE1211D712992780F6900161
:100AE00002E0B40F004002A139900AF0F828287300
:100AF000020B1D020B9C020BB5020BD6020BE3028C
:100B00000BFC020C12020C1F020C58020C65020CAA
:100B100099020CBC020CF7020D1A020D36907E33BE
:100B20007404F0907E30E04440F0907E05E030E7C1
:100B3000F9907E2EE4F0A3741FF0907E5CE0448078
:100B4000F0907E05E0FF30E7F8907E35E0907E3152
:100B5000F0907E88E04480F0907E98E0540FC3943B
:100B6000044009907E0CE4F0A3F0800BD214907E38
:100B70000C74FCF0A3E4F0907E03E0547FF0907ED0
:100B80005DE04440F0907E03E054F0440EF0A3E4B6
:100B9000F0EF4401A3F0900102E004F0907E05E044
:100BA000FE20E4037F0122EE30E5028041B2149082
:100BB0000102E004F0907E31E0547FF0E054C3F095
:100BC000D13A907E30E04404F0907E05E030E7F9C1
:100BD000900102E004F0B13C50037F012290010239
:100BE000E004F0F180BF01037F012220140890018E
:100BF000027407F08029900102E004F0D117907E82
:100C000030E04401F0907E05E030E7F9900102E029
:100C100004F0B13C50037F0122900102E004F09007
:100C20007E35E0FF30E706543C643C6023907E3123
:100C3000E04480F0E0443CF0D13A907E30E044045F
:100C4000F0907E05E030E7F9900102E004F08008C2
:100C50009001027409F0800DB13C50037F01229095
:100C60000102E004F0907E0C74E0F0A3E4F0907ECA
:100C700003E04480F0907E0174E0F0A3E4F0907E05
:100C80005DE054BFF0907E03E054F0F0A3743EF0BA
:100C9000751F01900102E004F0907E05E04401F030
:100CA000907E05E0FF30E4F8EF30E504051F800298
:100CB000151F9001017407F0A3E004F0900101E01A
:100CC00060037F0122E51F70028063907E0C740335
:100CD00075F0E01201E5907E01740375F0E01201F9
:100CE000E5907E0CE064E76008900102740AF080F1
:100CF000A8900102E004F0907E88E0547FF0907E9E
:100D00003374B9F0907E30E04440F0907E05E030DE
:100D1000E7F9D215900102E004F0E51F60107B00B6
:100D20007A007900E4FF12B96AE49003FFF09001C1
:100D300002E004F080037F00227F0022907E5CE0CE
:100D40004480F0907E05E030E7F9907E35E0C330D6
:100D5000E001D322E508B407004002C114900D64FD
:100D6000F8282873020D79020DA1020DAA020DD0F8
:100D7000020DD9020DE7020DF9907E0C74F0F0A37C
:100D8000E4F0907E03E0547FF0907E347420F0D144
:100D90003A907E30E04420F0907E05E030E7F9059F
:100DA00008B13C50037F01220508907E0CE4F0A3BB
:100DB000F0907E03E04480F0907E347452F0D13A9B
:100DC000907E30E04420F0907E05E030E7F90508A1
:100DD000B13C50037F01220508907E0C7480F09096
:100DE0007E347420F00508D13A907E30E04420F043
:100DF000907E05E030E7F90508B13C50037F012201
:100E0000907E0CE02410F0E064E060057508058039
:100E1000D6E4F5087F0022907E0C74F8F0A3E4F08D
:100E2000907E03E04480F0907E0EE4F0FE7F1F7D14
:100E3000FF7B017A7E790F1205D8907E337406F01D
:100E4000907E30E04440F0907E05E030E7F922E506
:100E5000081460331460391460441460532404701F
:100E60006A907E0CE4F0A3F0907E03E0547FF09053
:100E70007E347452F0D13A907E30E04420F0907E7F
:100E800005E030E7F90508B13C50037F0122050871
:100E9000907E0C7480F0907E347420F00508D13A76
:100EA000907E30E04420F0907E05E030E7F90508C0
:100EB000B13C50037F0122907E0CE02410F0E064EE
:100EC000E0600575080380D6E4F5087F00229001F4
:100ED00000E014605F147002E15B147002E16314BF
:100EE0007002E16D24046002E17D907E33E4F090B5
:100EF0007E88E054BFF0907E30E04440F0907E0564
:100F0000E030E7F97F12DFFE907E88E04440F0E0B9
:100F10004480F0907E31E0547FF0E054C3F0D13A49
:100F2000907E30E04404F0907E05E030E7F99001D7
:100F300000E004F0B13C50037F012290020BE0B4CA
:100F400002089001007404F080232014089001002E
:100F50007403F0800E900100E004F0D14FEF6016B2
:100F60007F0122B154EF60037F012280091221A882
:100F7000EF60037F0122E4900100F0FF227F002256
:100F8000E50814602B047032907E0C74F0F0A3E43A
:100F9000F0907E03E04480F0907E347420F0D13AEB
:100FA000907E30E04420F0907E05E030E7F90508BF
:100FB000B13C50037F0122E4F5087F002212B3D632
:100FC000907E62E04404F0907E60745CF022E490D5
:100FD0000256F0127235123BDAE490028CF0227560
:100FE0008921D28CD2A9758DFF758BFFD28E22906C
:100FF000721F7480F022AF19229004AC7402F022A8
:1010000016017F011210097F017E09E4FDDDFEDE7D
:10101000FADFF622AB287F708F3D8D3EAC037A035A
:10102000AB04AD3EAF3D91F8AB07BBFE081A7F02A3
:101030001109EA70EBAF0322E55914606D147002D8
:1010400001C414700201F324036002210990020814
:10105000A3E024D02558FB7D247F7011187B287DC8
:101060001F7F703112900209E024D0FF900208E047
:101070003402FE7C00EF2558EC3E541F33333354CA
:10108000F8FFE52854074FF528FB7F70111874030B
:101090002558F582E43401F583E0FB7D267F70114D
:1010A00018310C43280411140559310CE52830E49B
:1010B00010900207E030E10405598008755903805B
:1010C000327F0122310C4328021114310CE5283003
:1010D000E4F97D257F70311274032558F582E434DC
:1010E00001F583E0B5280405598008E4F558F55961
:1010F0007FFF22055890020AE065586005E4F55923
:10110000014DE4F558F559FF227F00227B287D230D
:101110007F70907E5EEFF0A3EDF0907E617401F041
:10112000907E677405F0907E667401F0E4F0907E26
:1011300060E0548FF09004AB740FF0000000907EDC
:1011400067E030E0237401F0907E64E013131354E1
:101150001FFFBF0108A3E0A803F67F0022907E6670
:101160007401F0E4F07FFF229004ABE070CDB15445
:101170007FFE22E4FB7D077F5011187B807DF37F8B
:101180007011187BA27D207F7011187B7E7D217FDE
:101190007011187BC67D227F7011187F0022E55ADE
:1011A0002420FF7B247DFF3112432420E55A242094
:1011B000FFAB241118E55A2420FF7B247D05311252
:1011C000F18140055324FB8003432404E55A242085
:1011D000FFAB247D0501189004ACE0146029146075
:1011E0004214604B14605224FE605D24066002418C
:1011F0006F9058F0E030E477F1709058F1E054C00F
:10120000C4540FF55A8062120FF6EF641260081290
:101210000FF6EF6403705890028BE0D39419504F8F
:10122000020FF9907E9CE04408F0755B0F803AE570
:101230005B703C9004ACE004F0E55A2420FFE4FB32
:101240007DE61118319E8021518AE55A2420FF7BCA
:10125000237D0531124323022017035323FEE55A51
:101260002420FFAB237D0511189004ACE004F0228C
:10127000C0E0C083C082C0D0758A44758CCB12296F
:1012800000D0D0D082D083D0E0327E0A7F477D1A52
:1012900091AD7B007A0079007F5002B96AE55A244B
:1012A00020FF7B347D0531125334FDE55A2420FFA5
:1012B000AB340118900207E020E002801390020B8B
:1012C000E0F970022173E9B40102800AE9B4020373
:1012D000020ECE7F00227538287F2551EF4328402B
:1012E00085282D7F2591297F00227538287F297E2A
:1012F000007D007C008F378E368D358C34907E5E7D
:101300007450F0A3E535F0907E617401F0907E6535
:10131000E536F0907E60E0548F4410F0907E67E0F8
:1013200030E0F9907E677401F0907E5E748CF0A3DB
:10133000E537F0907E617401F0907E60E0548FF0AC
:10134000907E67E030E0F9907E677401F0907E65F2
:10135000E0A838F67F0022E55714606514607C141D
:101360007002810B240360028121900208A3E02512
:1013700056F52D7F267E007D007C0091297538284A
:101380007F2751F5900209E02556900208E03E546F
:1013900007FFE52854F84FF528F52D7F277E0091AB
:1013A0002974032556F582E43401F583E0F52D7F99
:1013B0002891297538287F2951F543280191240562
:1013C0005751EAE52830E210900207E030E10405C9
:1013D00057800875570380337F012251EA43280262
:1013E000912451EAE52830E2F97538287F3051F52B
:1013F00074032556F582E43401F583E0B52804052D
:10140000578008E4F556F5577FFF22055690020AEB
:10141000E065566005E4F557616AE4F556F557FF57
:10142000227F002285282D7F298F2C8E2B8D2A8CC0
:1014300029907E5E7450F0A3E52AF0907E617401DD
:10144000F0907E65E52BF0907E60E0548F4410F0C4
:10145000907E67E030E0F9907E677401F0907E5EE8
:10146000748CF0A3E52CF0907E617401F0907E65A1
:10147000E52DF0907E60E0548F4410F0907E67E0A0
:1014800030E0F9907E677401F07F0022900207E05F
:1014900020E002801390020BE0F970020138E9B4F9
:1014A00001026157E9B40202A1917F00228E388FB8
:1014B00039A905E55A6010853982853883E493B4EB
:1014C0002005255AFF8009853982853883E493FFFA
:1014D000853982853883740193FD740293FB11185A
:1014E000EF700D74032539F539E43538F53880038C
:1014F0007FFF22D9BE7F0022907E5EEFF0A3EDF049
:10150000907E617401F0907E67F0907E66F0E4F06A
:10151000907E65EBF0907E60E0548F4410F0900474
:10152000AB740FF0000000907E67E030E01B7401A8
:10153000F0907E64E0131313541F7002FF22907E1C
:10154000667401F0E4F07FFF229004ABE070D5B147
:10155000547FFE22907E89E054BFF0907E89E0FFA8
:1015600030E5F8EF4404907E89F07F08907E89E0B2
:101570004408F0E054F7F0DFF3907E89E054FDF08A
:10158000E04401F0E04408F0E04402F0E04440F0C0
:1015900022900100E0147002C194147002C1B314CF
:1015A0007002C1E924036002C1FF90020BE06402F3
:1015B000701A900208E0FCA3E0FD2400EC34E090F7
:1015C0007E0CF0A3EDF0907E03E0802420142690A2
:1015D0000208E0FCA3E0FD2400EC34FC907E0CF05B
:1015E000A3EDF0C3900208E09404907E03E040195C
:1015F0004480F08017900208E0FCA3E0FDEC907EB0
:101600000CF0A3EDF0907E03E0547FF0900209E02F
:10161000FF54E0907E0DF0EF541FFFC374209FF540
:101620002890020AE0FF6009C3952850048F2880A3
:1016300007E52870037528207E007F207DFF7B0151
:101640007A7E790E1205D8AF287E007C00740325BF
:101650001DF9EC3401FA7B01780E7C7E7D011200CD
:10166000DE900209E02528F0900208E03400F090B6
:10167000020AE0C39528F0E528251DF51D120E3A53
:10168000907E30E04401F0907E05E030E7F9900173
:1016900000E004F0120D3C50037F0122900207E0AD
:1016A00030E108900100E004F0800890010074032C
:1016B000F08036907E30E04402F0907E05E030E726
:1016C000F9780E7C7E7D017B017A7E793C7E007FFD
:1016D000201205B4EF7008900100E004F0800AE4E5
:1016E000F51D900100F07FFF2290020AE06007E400
:1016F000900100F0A1AAE4F51D900100F0FF227F07
:101700000022900207E020E003021FFA90020BE0A3
:10171000FE7002802BEEB40102802290020BE0B436
:101720000218D3900209E09400900208E09404406B
:10173000047F0280027F0102209D7F00227F002221
:101740007F00228F387F2E51EF7F0022AB077DF97B
:101750007F5031127F00228B318A328933EF24FE91
:101760006007047008AF3380E3AF3380D67F012277
:10177000907E96E054F04404F0907E9CE04404F0A7
:101780002290581DE0FF30E407540CC3600CD322B4
:10179000EF540CFFBF0802D322C3229058BFE0448D
:1017A00020F07F0111099058727498F0A3E054FC66
:1017B000F0A37420F0A3E054FCF022905810747051
:1017C000F090022CE07F03B402027F02EFC454F0D9
:1017D0004405905850F07CC8905810E05470700A3E
:1017E0007F011109AF041CEF70EED322A20F301558
:1017F00001B35044300F16907E3374B9F0907E30B0
:10180000E04440F0907E05E020E72980F7907E33A9
:10181000E4F0907E88E054BFF0907E30E04440F0E9
:10182000907E05E030E7F9752E12D52EFD907E886A
:10183000E04440F0A20F921522900102E07F01B433
:101840000E027F0022E4FD900462E014B41900400F
:101850000241AB90186175F003A4C58325F0C583E0
:10186000730218AC0218C30218DA02190E02192505
:1018700002193C02195302198402199C0219B4027C
:1018800019CC0219F102196A02196A02196A021ABC
:1018900012021A1F021A2C021A39021A46021AAB35
:1018A000021AAB021A53021AAB021A96900450E0C5
:1018B000FEA3E07803C333CE33CED8F92415F974F0
:1018C000082199900450E0FEA3E07803C333CE339F
:1018D000CED8F92427F974082199900457E070179D
:1018E000900450E0FEA3E07803C333CE33CED8F9A2
:1018F0002439F974082199900450E0FEA3E078039C
:10190000C333CE33CED8F9248AF9740821999004D0
:1019100050E0FEA3E07803C333CE33CED8F924DD04
:10192000F974088074900450E0FEA3E07803C33398
:10193000CE33CED8F924E1F97408805D900450E0EC
:10194000FEA3E07803C333CE33CED8F924F5F9747F
:10195000088046900450E0FEA3E07803C333CE3302
:10196000CED8F92433F97409802F900450E0FEA3F7
:10197000E07803C333CE33CED8F92516FFEE351504
:10198000A907805E900450E0FEA3E07803C333CE45
:1019900033CED8F9244FF974093E8046900450E0C4
:1019A000FEA3E07803C333CE33CED8F92481F97493
:1019B000093E802E900450E0FEA3E07803C333CEAE
:1019C00033CED8F924CBF974093E8016900450E048
:1019D000FEA3E07803C333CE33CED8F92415F974CF
:1019E0000A3E7527FFF5288929900465A3E0FD418B
:1019F000AB900450E0FEA3E07803C333CE33CED8DF
:101A0000F924DBF974083E7527FFF52889297D0242
:101A100041AB7527017528047529677D0141AB75B8
:101A200027017528047529637D01807F752701755D
:101A300028047529647D0180727527017528047555
:101A400029587D01806575270175280475295F7DFA
:101A50000180587A04795E75270175280475295E1E
:101A60007D011139EF6007E490045EF0803D900441
:101A70005EE0F46036900459E064016004E0B40272
:101A80000D90045E7402F0E4900459F0801D9004FF
:101A90005E7401F08015E5105418243CFFE4347E98
:101AA000A907752701F52889297D08ED605A90045A
:101AB00051E02401FF900450E03400FEEF7803C3AE
:101AC00033CE33CED8F9FFEDFBC3EF9BEE9400404D
:101AD0001C900450A3E075F008A4FFC3ED9FF52609
:101AE000E4900450F0A3F0900462F0801175260891
:101AF000900451E004F07006900450E004F0AB272D
:101B0000AA28A929AD26F1C722900454E030E008A4
:101B100071449072197401F0900454E030E108713E
:101B20005B9072197402F0900454E030E2081145A1
:101B30009072197404F0900454E030E30690721926
:101B40007408F02212BE91900446E0546024C060F4
:101B50000624407005801F12BED622900462E02445
:101B6000EA600B24FE60092403700A02C114C19FBD
:101B70007F0112C00F22900446E030E70CA3E06022
:101B80000624FA700E800DE1B0900447E024FB704B
:101B900002F1B722900449E024FE60341460562418
:101BA000F47002C13A240E6002C17190044EE0FE4E
:101BB000A3E0FFC39412EE9400500280047E007FE5
:101BC00012900465EEF0A3EFF09004627401F0222D
:101BD00090044EE0FEA3E0FFC39412EE9400500286
:101BE00080047E007F12900465EEF0A3EFF0900475
:101BF000627402F022900448E0B408004002C1710F
:101C0000901C07F8282873021C1F021C44021CBAEF
:101C1000021D30021DA6021DCB021DF0021E1590F2
:101C2000044EE0FEA3E0FFC39404EE940050028053
:101C3000047E007F04900465EEF0A3EFF090046250
:101C40007404F0227515E07516007B017A04795A48
:101C50007F4012B96AEF703D90045BE02516F516DF
:101C600090045AE03515F515851682F583E493FF47
:101C70007E0090044EE0FCA3E0FDC39FEC9E500666
:101C8000AE04AF058000900465EEF0A3EFF0900481
:101C900062740DF02290044EE0FEA3E0FFC39414A2
:101CA000EE9400500280047E007F14900465EEF0F4
:101CB000A3EFF09004627405F0227515E07516002C
:101CC0007B017A04795A7F4112B96AEF703D900422
:101CD0005BE02516F51690045AE03515F5158516C6
:101CE00082F583E493FF7E0090044EE0FCA3E0FDC8
:101CF000C39FEC9E5006AE04AF058000900465EED5
:101D0000F0A3EFF0900462740EF02290044EE0FE17
:101D1000A3E0FFC3943EEE9400500280047E007F57
:101D20003E900465EEF0A3EFF09004627406F0229A
:101D30007515E07516007B017A04795A7F4212B955
:101D40006AEF703D90045BE02516F51690045AE0AA
:101D50003515F515851682F583E493FF7E00900412
:101D60004EE0FCA3E0FDC39FEC9E5006AE04AF0521
:101D70008000900465EEF0A3EFF0900462740FF021
:101D80002290044EE0FEA3E0FFC3941CEE940050AA
:101D90000280047E007F1C900465EEF0A3EFF090BB
:101DA00004627407F02290044EE0FEA3E0FFC394A7
:101DB00032EE9400500280047E007F32900465EE83
:101DC000F0A3EFF09004627408F02290044EE0FE5D
:101DD000A3E0FFC3944AEE9400500280047E007F8B
:101DE0004A900465EEF0A3EFF09004627409F022CB
:101DF00090044EE0FEA3E0FFC3944AEE940050022C
:101E000080047E007F4A900465EEF0A3EFF090041A
:101E100062740AF02290044EE0FEA3E0FFC3943205
:101E2000EE9400500280047E007F32900465EEF054
:101E3000A3EFF0900462740BF02290044EE0FEA336
:101E4000E0FFC39451EE9400500280047E007F5165
:101E5000900465EEF0A3EFF09004627403F0900339
:101E600058E020E106E4900457F0229004577403F0
:101E7000F022900445E0FD30E00B12BE4590044591
:101E8000E054FEF022ED30E615907218E090045414
:101E9000F0540F60026109900445E054BFF02290B5
:101EA000721AE0F526AF267E00900452E0FCA3E013
:101EB0002403F974013CA801FC7D017B017A72794D
:101EC000081200DEAF267E00900453E02FF090044D
:101ED00052E03EF0900456E02FF0900455E03EF0C2
:101EE000900453E0703790045DE0900208F0A3E4A2
:101EF000F0A3F01215918F27EF640160F6E527B487
:101F0000FF0690045E74FFF090045DE004F070063C
:101F100090045CE004F0E4900452F0A3F0900443D9
:101F2000E0FEA3E0FF900455E06E7003A3E06F7045
:101F30007AFC900453E0FD602A90045DE090020872
:101F4000F0A3E4F0A3EDF01215918F27EF64016088
:101F5000F6E527B4FF0690045E74FFF0E4900452A7
:101F6000F0A3F01217028F27EF640160F6E52760F7
:101F70000BE527B4FF0690045E74FFF0122147EFD3
:101F8000640160F8E490045CF0A3F090045904F05C
:101F9000E4900455F0A3F0900443F0A3F0900462A1
:101FA000F0900207E020E00343100122F1DDC1724E
:101FB000900462740CF02290044AA3E090721CF02A
:101FC0009072197480F0228D2AAF2A7E0078107CDE
:101FD000727D011200DE90721BE52AF02290721EC3
:101FE000E0FDF0ED30E007900445E04401F0ED3015
:101FF000E607900445E04440F022900100E01460C0
:102000004914606014606F14700302208D24046012
:1020100002019A907E0C20140874FCF0A3E4F08076
:1020200004E4F0A3F0907E03E0547FF0907E5DE046
:102030004440F0907E03E054F0440EF0A3E4F0A39B
:10204000E04401F0900100E004F0907E05E0FE2005
:10205000E4037F0122EE30E508900100E004F08007
:10206000037FFF22120F80BF01037F01222014256E
:10207000900100E004F0120E17907E30E04401F071
:10208000907E05E030E7F9900100E004F0120D3C8D
:1020900050037F0122E4900100F07F0022900100B4
:1020A000E0146042146063147002213D2403600256
:1020B0002144907E0C74E0F0A3E4F0907E03E044B1
:1020C00080F0907E0174D9F0A3E4F0907E5DE0543E
:1020D000BFF0907E03E054F0F0A3743EF0E4F51EF0
:1020E000900100E004F0907E05E04401F0907E0550
:1020F000E0FE30E4F8EE20E5037FFF22900101745A
:1021000007F0051E900100E004F0900101E060037B
:102110007F0122E51EC39F501E907E0C740375F054
:10212000E01201E5907E01740375F0E01201E59084
:1021300001007401F080AF900100E004F0E4900130
:1021400000F0FF227F0022900100E014602914605B
:102150003424027050907E31E04480F0E0443CF042
:10216000120E3A907E30E04404F0907E05E030E7B5
:10217000F9900100E004F0120D3C50037F01229021
:102180000100E004F0907E88E0547FF0907E33748C
:10219000B9F0907E30E04440F0907E05E030E7F901
:1021A000E4900100F07F0022E50814602C047034F4
:1021B000907E0C74E0F0A3E4F0907E03E04480F0A5
:1021C000907E347420F0120E3A907E30E04420F07D
:1021D000907E05E030E7F90508120D3C50037F01C1
:1021E00022E4F5087F0022E4FF30042C90581DE023
:1021F0005403FEBE01047F028005BE02027F0190EF
:10220000581DE0540CFEBE04054307208041EE64D7
:1022100008703C430710803790581DE05403FEBE01
:1022200001047F04800CBE02047F088005BE030207
:102230007F0C90581DE0540CFEBE040543074080FF
:102240000EBE08054307808006BE0C034307C0226C
:10225000907EB7E04410F031E7907EB9EFF0907EC9
:10226000B6E020E40B9058CDE04404F0E054FBF0DD
:1022700022E51714700281D714700281F3240260E2
:1022800002A116F1D7907EB6E0F4FFA3E05F600BE9
:102290009058CDE04404F0E054FBF0128B08120F8C
:1022A000F6EFC3940C400B120FF6EFD394105002CC
:1022B000A116120FF6EFC39424400B120FF6EFD3C2
:1022C00094275002A11690022CE064027040120F75
:1022D000F6EFC39431400B120FF6EFD39435500252
:1022E000A116120FF6EFC39436400B120FF6EFD380
:1022F00094395002A116120FF6BF2108900251E046
:102300006002B145120FF6EF64017002A116120FC0
:10231000F6EF642D7002A116120FF6EF640670023C
:10232000A1169004A0E030E702A116B117920F3079
:10233000094920040B90581DE0540FFF7E00802AAD
:10234000900256E0FFB4010A90581DE05403640265
:10235000600EEFB4021090581DE0540CFFBF080649
:102360007E007F0180047E007F00EE4F24FF9210EC
:10237000300450C211C212F1928048200415B12DD0
:10238000D3EF9498EE94007E0040047F01802E7F6E
:1023900000802A900256E0FFB4010A90581DE054D4
:1023A000036402600EEFB4021090581DE0540CFF5D
:1023B000BF08067E007F0180047E007F00EE4F2470
:1023C000FF921020042C301029200F2631E7907E38
:1023D000B9E06F600890024FE004F08005E49002DD
:1023E0004FF090024FE0D3946440075150E49002C4
:1023F0004FF0201003300F0A9002BC7407F07518DC
:102400000122E518600DE4F5182004079002BC7461
:102410000CF0229002BCE06002A1167B05AF031B0A
:10242000EF700281B630094120040B90581DE05432
:102430000FFF7E00802E900256E0FFB4010A9058F4
:102440001DE0540364026012EFB4020A90581DE0CC
:10245000540C64086004B11750067E007F018004AC
:102460007E007F00EF4E60B522200415B12DD3EF22
:102470009498EE94007E0040047F0180327F0080BB
:102480002E900256E0FFB4010A90581DE0540364F8
:10249000026012EFB4020A90581DE0540C64086008
:1024A00004B11750067E007F0180047E007F00EF9C
:1024B0004E7002811D2290581CE054FEF0907E7EEA
:1024C000E054FDF0B18A9058F0E030E40312C18688
:1024D000E4FFB1BC05172290024DE06013B12DC39B
:1024E000EF9498EE9400502E0517E490024DF022E0
:1024F00005172290582FE05480F0E4900256F030F7
:10250000040D907EB2E030E2067F05B1BC8004C2CB
:1025100011D132E4F51722200D0E90588EE020E7FD
:102520000790588CE030E503D38001C322905870A7
:10253000E0FFFDA3E05403FEFCED6F6003EE8001BD
:10254000ECFEEDFF223004379058F1E0FF30E00E52
:1025500030E12CB1829058F1E054FDF08021B12D92
:10256000AA06AB07907EAFE075F050A4FFAEF07CFA
:10257000007D19120190C3EB9FEA9E5002B1827F49
:102580000022900293E04402F0229004A0E030E1A7
:102590001EC211A2044003D38001C39212F1929093
:1025A00004A6E075F004A4FFE5F0C313EF800790E4
:1025B00004A3E054F0C31390024DF022AE198F191A
:1025C000907EB3E519F06E602E90022CE0640270EC
:1025D00024EE640A701F9058ABE054FEF09058C788
:1025E000E054FEF0A37401F0905813E0547FF09093
:1025F00058117480F0C201229058A0E030E618C251
:1026000010D1DFC210D1C77F02B1BCE4FFD19290DC
:1026100002807464F08015D210D1DFD210D1C77F50
:1026200011B1BC7F01D192E4900280F0907EB9E4B8
:10263000F022A211E433FFD19290028B740FF0903C
:10264000028BE0602490581DE0540F60F2120FCE10
:1026500090581AE0540FFFBF05047F0180027F00ED
:10266000EF7F1170027F0280229058CDE04401F08C
:10267000E054FEF090581AE0540FFFBF05047F01AC
:1026800080027F00EF7F1170027F02A1BC127245B1
:102690007F01EF60159058D8E054C06440602190ED
:1026A000581AE054B04405F080119058D8E054C056
:1026B000600E90581AE054B0440AF07F01121009DD
:1026C00022E4FFD192C210A2109204A204E433FFCC
:1026D00090582EE054FE4FF022C210D1C7C210A273
:1026E000109202A202E43333333354F8FF90582E91
:1026F000E054F74FF0227B007A0079257543F2E42D
:10270000F5447D0112321790582FE05480F0905814
:10271000BDE0547F123BDEE5196418606CE5196476
:1027200006606690581CE054FEF0E519C3942540FD
:1027300007E519D39427400EE51AC394254014E504
:102740001AD39427500D7F01D192D2047F01121029
:10275000098020E519C3940D4007E519D394104072
:102760000EE51AC3940D400BE51AD394105004C221
:1027700004F18A127235200408C210D1DF7F06806E
:1027800006D210D1DF7F17B1BC22E4FFD192C21173
:10279000D2123011169004A0E04402F0E054FBF095
:1027A0009058237444F07477F0802C9004A0E05487
:1027B000FDF09058237466F07F443012027F5590EC
:1027C0005823EFF03012099004A0E04404F0800791
:1027D0009004A0E054FBF0C21390581CE0FF139249
:1027E000F7907EB8E0FEA2E230F701B35022907E6F
:1027F000B7E04404F0EF30E007EE4404A3F08007B4
:10280000907EB8E054FBF0907EB6E020E202D21356
:102810009004A0E0FFA2E192F7907EB8E0FEA2E370
:1028200030F701B35022907EB7E04408F0EF30E17A
:1028300007EE4408A3F08007907EB8E054F7F090CC
:102840007EB6E020E302D2139004A0E0FFA2E29261
:10285000F7907EB8E0FEA2E130F701B35022907EFF
:10286000B7E04408F0EF30E207EE4402A3F080073F
:10287000907EB8E054FDF0907EB6E020E302D213E3
:10288000907EB8E0FFA2E5300201B35021907EB700
:10289000E04420F0300207EF4420A3F08007907E50
:1028A000B8E054DFF0907EB6E020E502D2139058F5
:1028B000CDE0F930E53B9002B8E05406FE7F0024FD
:1028C000FF92F7907EB8E0FD1330F701B3502290ED
:1028D0007EB7E04402F0EF4E6007ED4401A3F080C4
:1028E00007907EB8E054FDF0907EB6E020E102D281
:1028F0001330130BE944049058CDF0E054FBF02260
:10290000D39002B5E094009002B4E09400400CA390
:10291000E024FFF09002B4E034FFF090028BE0D3AB
:1029200094004003E014F090028AE0D39400400346
:10293000E014F090024DE0D394004003E014F090D6
:1029400002BCE0D394004003E014F0900280E0D396
:1029500094004003E014F0E55CD394004002155C61
:1029600090024EE0D394004003E014F09002BDE0EA
:10297000D394004003E014F0D39003F4E09400906B
:1029800003F3E09400400CA3E024FFF09003F3E095
:1029900034FFF0900101E0D394004003E014F0D341
:1029A000900489E09400900488E09400400CA3E037
:1029B00024FFF0900488E034FFF09004ABE0600264
:1029C00014F0D3900255E09400900254E09400403B
:1029D0000CA3E024FFF0900254E034FFF0D3900207
:1029E000BFE094009002BEE09400400CA3E024FFFE
:1029F000F09002BEE034FFF0E55B6002155B228DD3
:102A00004BE4F54D905851E54BF0C3941E7F1E509A
:102A100002AF4B7E0078527C587D011200DE905848
:102A2000107470F0E54BB4FF08905850E54CF080FE
:102A30001590022CE07F03B402027F02EFC454F031
:102A4000454C905850F07FC8EFC313F55C90581078
:102A5000E0FE54707005E55C70F3FFE4F55CEF7028
:102A600005754DFB801DEE30E605754D0180149017
:102A70005810E0FF30E505754DFF8007EF30E403A7
:102A8000754DFE9058107470F0AF4D22E025E02592
:102A9000E02402FDE4FB8E458F468B477C01E54731
:102AA00060128F828E83A3E054FEF08546828E836F
:102AB000E054DFF0AA45A9467B0185474C31FFACC5
:102AC00007D3EC64809480501FE5477038120FF6EE
:102AD000EF641C6030BCFE047F2C80077F21200443
:102AE000027F0A1225BC801D748F2547F582E434CD
:102AF00002F583E0045407FF748F2547F582E43420
:102B000002F583EFF0AF0422AB07900256E07003AA
:102B10007FFC2290020CE054E0440BFFF0A202E4A0
:102B2000335401C43354E0FEEF54DF4EFFF0900203
:102B30002CE05403C4333354C0FEEF543F4E900294
:102B40000CF0A204E4335401FFA3E054FE4FFFF065
:102B5000748F2BF582E43402F583E0540725E0FE00
:102B6000EF54F14E90020DF0548F4410F04480F079
:102B7000A3E054FEFE7405FF90020EEEF0A3EFF00A
:102B8000EE54FDFE90020EF0A3EFF0EE54FBFE902B
:102B9000020EF0A3EFF0EE5487FE90020EF0A3EFCA
:102BA000F0EE547F90020EF0A3EFF0E0FC90020EE6
:102BB000E0FFECFEEEF0A3EFF0A37401F0A37405C8
:102BC000F090048CE0900212F0900495E0900213D3
:102BD000F090049FE0900214F07E027F0C7D09418A
:102BE000968F2690027FE0FF652660028F26900474
:102BF00087E014B409004002C14B902C0875F00323
:102C0000A4C58325F0C58373022C23022C39022C22
:102C100097022CE9022D4D022D8F022DED022E3E42
:102C2000022E41AF26127858D3EF64809480500270
:102C3000C14BE490048AF0C14790048AE0703FAF32
:102C400026D14C907EB8E030E61F900495E075F0F8
:102C50000AA42439FFE435F0A2E713FEEF13FF9036
:102C60000488EEF0A3EFF08009900488E4F0A374E8
:102C700096F090048B7403F090048A7401F01212A1
:102C8000B48F27E5276002C14B9004877403F0904E
:102C90000207E04402F02290048AE07024AF26D1BB
:102CA0004C90048A7401F0907EB8E090048830E67D
:102CB00008E4F0A3741CF0C106E4F0A37496F0C11C
:102CC00006900488E07002A3E06002C14B90048B80
:102CD000E0D394005002C134AF26D14C900495E06B
:102CE0002439FFE433A2E7A17F90048AE07036AF75
:102CF00026127979900495E0FF900497E02FFF90D9
:102D00000496E03400CF2439CF3400C313FEEF1310
:102D1000FF900488EEF0A3EFF090048B7403F09022
:102D2000048A7401F012148C8F27E527700C90042C
:102D3000877405F0E490048CF022E527F46002C16A
:102D40004B9004877405F090048C04F02290048862
:102D5000E07002A3E06002C14B90048BE0D39400CA
:102D6000402BAF26127979900495E0FF900497E00C
:102D70002FFF900496E03400CF2439CF3400C313E2
:102D8000FEEF13FF900488EEF0A3EFC12CC1349046
:102D9000048AE07028AF267108900495E02439FF7A
:102DA000E433A2E713FEEF13FF900488EEF0A3EFE5
:102DB000F090048B7403F090048A7401F0121702EF
:102DC0008F27E52770119004877407F0E490048C36
:102DD000F090049F04F022E527F4706F900487744C
:102DE00007F090048C14F0E490049FF02290048A81
:102DF000E0701AAF26710890048A7401F09004887C
:102E0000E4F0A3741CF090048B7403F02290048807
:102E1000E07002A3E0703490048BE0D3940040147F
:102E2000AF267108900488E4F0A3741CF090048B22
:102E3000E014F022E4900487F090048AF022E48009
:102E400006AF26127A61E4900487F0228F28900260
:102E500056E070037FFC2290020CE054E0440BFF2C
:102E6000F0A202E4335401C43354E0FEEF54DF4EC9
:102E7000FFF090022CE05403C4333354C0FEEF54EF
:102E80003F4E90020CF0A204E4335401FFA3E0543F
:102E9000FE4FFFF0748F2528F582E43402F583E0BD
:102EA000540725E0FEEF54F14E90020DF0548F448C
:102EB00010F04480F0A3E054FEFE7407FF90020E71
:102EC000EEF0A3EFF0EE54FDFE90020EF0A3EFF053
:102ED000EE54FBFE90020EF0A3EFF0EE5487FE904E
:102EE000020EF0A3EFF0EE547F90020EF0A3EFF08D
:102EF00090020EE0FCA3E0FAECFFEAFE90020EEE78
:102F0000F0A3EFF0A37401F0A304F090048CE09020
:102F10000212F0900495E0900213F078147C027D88
:102F2000017B017A0479987E007F031200DE7E0225
:102F30007F0CAB287D0B4196E4F5257F0A90025665
:102F4000E070037FFC22EF541FFF90020CE054E07E
:102F50004FFFF0A202E4335401C43354E0FEEF54B7
:102F6000DF4EFFF090022CE05403C4333354C0FE14
:102F7000EF543F4E90020CF0A204E4335401FFA33F
:102F8000E054FE4FFFF090028FE0540725E0FEEF83
:102F900054F14E90020DF0548FF0547FF07E027F7A
:102FA0000CE4FB7D0241969058A9E04480F09058D3
:102FB00019E05401FD7F01ED702ABF03079058B45A
:102FC00074218051BF02079058B474098047BF0133
:102FD000079058B47420802EEF6404703F9058B46A
:102FE00074098012BF03079058B474128008BF029E
:102FF0000D9058B47406F0A3F0A3740CF022BF0136
:103000000C9058B47410F0A3F0A3E4F022BF040CA9
:103010009058B47406F0A3F0A37403F022907EB22B
:10302000E030E01B9058B4E0FF54307006A3E05449
:1030300030600CEF54CF9058B4F0A3E054CFF0229E
:10304000900AA2E49390035EF0900AA3E4939003A5
:103050005FF0A3E05480FF900AA4E4934F900360D4
:10306000F0900AA5E493900361F09002FEE030E254
:1030700007900361E04402F07E007F047D007B0145
:103080007A0279D40205D8E49002B4F0A3F0C20128
:10309000F51B90028AF0C20AC20D900293F09002D2
:1030A00084F012717E11407E007F047D007B017AE6
:1030B0000279D41205D89002B674FFF0A3F0900301
:1030C00058E054FDF054FEF054F3F054EFF0A3E058
:1030D00054FEF0E490027AF0900402E054FEF022F4
:1030E00011873004047F1C80052004057F0712250A
:1030F000BCE4FD7FF18F2A8D2B855382855283E0BE
:10310000600E7B007A007900E4F549852B4A801730
:10311000900403E0601312B5A87B007A007900E404
:10312000F549852B4AAF2A8034E52BC4333354C08C
:103130004401855382855283F0A3E52AF0AA52A95F
:10314000537B017D02F171855382855283A3A3EFE6
:10315000F09058CDE04408F0E054F7F022E54AC47E
:10316000333354C0FEE549044EFE9003FFE0FDC436
:103170003354E02403F582E43404F583EEF0EDC427
:103180003354E02404F582E43404F583EFF0E54998
:10319000D394004027AF497E00C006C007C001900D
:1031A00003FFE075F020A42405F9740435F0A801AC
:1031B000FC7D01D001D007D0061200DE9003FFE0B5
:1031C00075F020A42403F9740435F0FA7B01E54975
:1031D0002402FDF1719003FFE0FDC43354E02405A7
:1031E000F582E43404F583E5822549F582E43583EC
:1031F000F583EFF0EDC3940150069003FFE004F077
:1032000022E4FF51C38F437B017A02792FE5272502
:10321000E025E0FDE4F5448B3F8A4089418D4285FD
:103220005382855283E0600C85424985444AAF430E
:10323000315D8072900403E0601312B5A8AB3FAA21
:1032400040A94185424985444AAF43215DE544C4D4
:10325000333354C0FFE542044F855382855283F0D7
:10326000A3E543F0E542D39400401AAF427E00E567
:10327000532402FDE43552A805FC7D01AB3FAA4072
:10328000A9411200DEAA52A9537B01E5422402FDA6
:10329000F171E5422402FDE433FCE5532DF582E5AE
:1032A000523CF583EFF02151E4FB7D017F10AE032A
:1032B0008F3D8D3E7B007A00793D7543F08E447DD5
:1032C000024117EF6074ED14B40F00400261869064
:1032D00032DD75F003A4C58325F0C5837302330A7C
:1032E00002330E02331202331602331A02331E0265
:1032F00033220233860233860233860233360233A8
:103300002A02332E0233320233267E3080787E3119
:1033100080747E3280707E33806C7E3480687E352F
:1033200080647E3680607E3A805C7E3780587E384E
:1033300080547E3980507E3C804CED1203DB33603C
:1033400005336406338007336810336C1133701211
:10335000337413337C1433841533781600003386AA
:103360007E2480227E25801E7E1C801A7E1D801673
:103370007E1E80127E1F800E7E23800A7E218006A4
:103380007E2680027E22AF062290022CE0FFB4024D
:1033900007A3E0541FFE800790022DE0540FFEEEBD
:1033A00014B40F004002E14D9033B675F003A4C58C
:1033B0008325F0C583730233E30233E30233E30270
:1033C00033E30233E302354C0233E30233E30233E7
:1033D000E30237310233E30233E3023603023603FA
:1033E0000233E3EF90022DB40206E0541FFD800487
:1033F000E0540FFD7F01127F28EF602390022CE044
:10340000B40207A3E0541FFF800790022DE0540F81
:10341000FF7B017A02792FE4F532125AD581CB90E5
:103420000230E0FDC4131313540130E01290022E59
:10343000E0C4540775F004A485F02AF52B8016ED3E
:10344000FE90022FE0FDEDFFEE5401FEEF2402F5A9
:103450002BE43EF52A90022CE0B40207A3E0541FAF
:10346000FD800790022DE0540FFD7F0151C38F4373
:103470007B017A02792FAD2BE4F544511790022C91
:10348000E0FFB40207A3E0541FFE800790022DE086
:10349000540FFEEE6403602EEF90022DB40206E09E
:1034A000541FFF8004E0540FFFEF64046018900283
:1034B0002CE0B40207A3E0541FFF800790022DE028
:1034C000540FFFBF08057F3B1225BC90022CE0B4CF
:1034D0000207A3E0541FFF800790022DE0540FFF66
:1034E000EF64026002E170900293E0FF54207002EA
:1034F000E170EF30E44E900368E06048E4F52C742E
:10350000017E00A82C088005C333CE33CED8F9FF46
:10351000900368E0FDFBEF5B6021900362E52CF017
:10352000FF7401A807088002C333D8FCF45D900340
:1035300068F0E4FD7F0412AD698009052CE52CC319
:10354000940840BB900293E054DFF022900231E0F7
:1035500054FE6002E162A3E054F86002E16290026E
:103560002CE0B40207A3E0541FFD800790022DE079
:10357000540FFD7F01127F28EF6025900231E0702B
:103580001F90022CE0B40207A3E0541FFF800790B5
:10359000022DE0540FFF12B962EF7002E170E16298
:1035A000900230E0FDC4131313540130E012900276
:1035B0002EE0C4540775F004A485F02AF52B80167C
:1035C000EDFE90022FE0FDEDFFEE5401FEEF240230
:1035D000F52BE43EF52A90022CE0B40207A3E05458
:1035E0001FFD800790022DE0540FFD7F0151C38F16
:1035F000437B017A02792FAD2BE4F54451177F3BD1
:103600000225BC907EB8E020E602C195900230E031
:10361000FDC4131313540130E01290022EE0C45481
:103620000775F004A485F02AF52B8016EDFE9002B4
:103630002FE0FDEDFFEE5401FEEF2402F52BE43EFA
:10364000F52AD3E52B941CE52A9400402390022C04
:10365000E0B40207A3E0541FFD800790022DE05460
:103660000FFD7F0151C38F437B017A02792FE11651
:1036700090022CE0B40207A3E0541FFD80079002E3
:103680002DE0540FFD7F0151C38F437B017A0279F6
:103690002FAD2BE12CF197EF6002E170900258E022
:1036A000F52CA3E0F52DE52C5401FEAF2DA3E0543D
:1036B000FE4EFE90025AEEF0A3EFF0EE54FDFE90A7
:1036C000025AF0A3EFF0EE54FBFE90025AF0A3EF83
:1036D000F0EE5487FE90025AF0A3EFF0EE547F9084
:1036E000025AF0A3EFF090025AE0FCA3E0FAECFFDC
:1036F000EAFE90025AEEF0A3EFF0D3E52D941AE51E
:103700002C9400900278E0FD7F01401151C38F435B
:103710007B017A02795AE4F5447D1C801251C38FF3
:10372000437B017A02795AE52D2402FDE4F54441F8
:1037300017900230E0FFC4131313540130E009F175
:1037400097EF702C7F018002E4FF02B086907EB874
:10375000E030E611900230E0FFC41313135401204F
:10376000E003E48005F197EF7006FD7F10125A4EDA
:10377000228B4B8A4C894DE4FFFEEEC39D5013AB68
:103780004BAA4CA94D8E8275830012011D2FFF0E8E
:1037900080E8EFF404FF2290022EE0C4540775F095
:1037A00004A42402FFE435F0FE785A7C027D017BFC
:1037B000017A02792D1200DE90027AE0B40202E46E
:1037C000F090022CE0B40207A3E0541FFF800790A2
:1037D000022DE0540FFF7B017A02795C90022EE00B
:1037E000FEC45407F5328F2E8B2F8A308931753302
:1037F000011201FBF53585F034FCE534FFECF534BE
:10380000EFF5357B007A0079348B368A37893812A8
:1038100001FBACF0EC131313540FD39409E49400A0
:103820005007E532C3940150037FFF22EC131313BA
:10383000540F900279F0EC1313543F20E0022185DD
:10384000900258E0FEA3E0FF7C007D1A12019090E8
:103850000279E0FB7A00D3EF9BEE9A400B90027B5B
:10386000E054E0441AF08048900258E0FEA3E0FFE4
:103870007C007D1A120190EFB5032BEEB502279064
:10388000027BE04480FFF0900258A3E0FE900279B2
:10389000E075F01AA4FDC3EE9D541FFEEF54E04EF8
:1038A00090027BF0800A90027BE04480F054E0F0CC
:1038B00090027BE0541F700990027A74FEF07FFF43
:1038C000227E007F1E7D007B017A02795A1205D884
:1038D000900279E090027B7014E0541FFF7E007824
:1038E0005C7C027D017B017A03796F802CE0541FA0
:1038F000FF7E00C006C007900279E0FF7C007D1AC1
:1039000012017EEF24E6FFEE3479FAA9077B0178F5
:103910005C7C027D01D007D0061200DE900258E0E8
:103920005401FEA3E0FFA3E054FE4EFE90025AEEC7
:10393000F0A3EFF0EE54FDFE90025AF0A3EFF0EE8C
:1039400054FB90025AF0FCA3EFF0FD900279E05492
:103950000F33333354F8FEEC54874EFEEDFF9002E4
:103960005AEEF0A3EFF0EE448090025AF0A3EFF08D
:1039700090025AE0FCA3E0FAECFFEAFE90025AEE55
:10398000F0A3EF612D90027BE0547FF0AB36AA37B5
:10399000A9381201FBFDACF0EC5401AF05900258C0
:1039A000F0A3EFF0EC131313540F2401FBE433FAEC
:1039B000900258E0FEA3E0FF7C007D1A120190EF18
:1039C000B50319EEB50215900258E0FEA3E0FF7CA6
:1039D000007D1A120190ED4C7035802CAB36AA3761
:1039E000A9381201FBE5F0131313540F2401FBE473
:1039F00033FA900258E0FEA3E0FF7C007D1A12012A
:103A000090C3EF9BEE9A500790027BE04480F0ABAE
:103A100036AA37A9381201FBE5F0131313540F70BF
:103A200020E53275F004A4FFAEF0786F7C037D01D1
:103A3000AB2FAA30A9311200DE900278E52EF0807B
:103A400058E53275F004A424FEFFE5F034FFFEC013
:103A500006C007AB2FE5312402F9E43530FAC00384
:103A6000C002C001AB36AA37A9381201FBE5F0133A
:103A70001313541F7E00540FFF7C007D1A12017E29
:103A8000EF24E6FFEE3479A807FC7D01D001D002D7
:103A9000D003D007D0061200DE90027BE030E702B0
:103AA000613690025AE054FEFE7F0090025AF0A365
:103AB000EFF0EE54FDFE90025AF0A3EFF0EE440456
:103AC00090025AF0FCA3EFF0AB36AA37A9381201E6
:103AD000FBE5F0131313540F2401FFE433EF540FED
:103AE0007F0033333354F8FEEC54874EFE90025A75
:103AF000EEF0A3EFF0EE448090025AF0A3EFF090C6
:103B0000025AE0FCA3E0FAECFFEAFE90025AEEF063
:103B1000A3EFF0E4A3F0A3F0900278E52EF0E49098
:103B20000258F0A3F090027BE054E04402F09002CF
:103B30007A7401F0801AE490027AF0785C7C027D5D
:103B4000017B017A037971FE7F1A1200DEE4F533FE
:103B5000AF33227E007F047D007B017A0279DA1286
:103B600005D87E007F047D007B017A03793602054B
:103B7000D8E49002B8F0A3F09002BCF090024EF0AE
:103B80009002BDF090028BF0C205900282F090028C
:103B90004FF090024DF07153123087E490028DF097
:103BA000A3F09002BAF090581AE054CFF0E49002DB
:103BB00051F0C207C208C20B900281F0C209C206CE
:103BC000C20C9002927405F0C20E900252E4F0A36F
:103BD00074FAF09002507412F022E4900283F071B3
:103BE00071900257E070037402F0900257E0900267
:103BF0002CF0900285F022E4FDEDC3940450327461
:103C00005B2DF582E43403F583E0FE745A2DF582D2
:103C1000E43403F583E0FBEBFF7002EEF4600EEF9B
:103C200064017002EEF46005EF4E6001220D0D801C
:103C3000C8E4FEFF22900358E054FEF054FDF05417
:103C4000F3F054EFF054DFF0547FF054BFF0A3E0F2
:103C500054FEF071F7900317EEF0A3EFF022E92481
:103C600004F9E43AFA907E7EE0FF20E12912010493
:103C7000C4131313540130E06CEF4402907E7EF0C5
:103C8000907EB8E0FF20E75D907EB7E04480F0EFE3
:103C90004480A3F08029120104C41313135401209B
:103CA000E02A907E7EE054FDF0907EB8E0FF30E7A1
:103CB00034907EB7E04480F0EF547F907EB8F0906F
:103CC00058CDE04404F0E054FBF08019900001125C
:103CD000011D30E010907E7EE054FDF07F01121057
:103CE00009E04402F07F0122AB2BE52D2404F9E426
:103CF000352CFA7C047534069002DAE0FF54036038
:103D000071EF30E00B7F0130E6027F02AE078010DA
:103D10007534059002DAE07F0230E6027F01AE07DB
:103D200012010430E42774DA2EF582E43402F583BC
:103D3000E0FF30E3047C088039EF30E2047C04804B
:103D400031EF30E4047C108029E4FC802574DA2E05
:103D5000F582E43402F583E0FF30E2047C04801253
:103D6000EF30E4047C10800AEF30E3047C0880022A
:103D7000E4FCAF04B1A8900336E534F0A3ECF0E422
:103D8000A3F0A3F09058F0E030E402B18E2290044A
:103D9000AC7406F02290000112011DFFB1A89058EA
:103DA000F0E030E402B18E22907E88E054F34404C7
:103DB000F0EF603324FC600824F46004240F7019D1
:103DC000BF101020020D7F04907E88E054F3440C55
:103DD000F080027F02C21780047F03D21790581927
:103DE000E05401FD122FB72212252DD3EF9498EE47
:103DF00094004003D38001C34002D32290581DE0B9
:103E0000FF540360089002567401F0800FEF540CC9
:103E100060089002567402F08002D3221226D990D4
:103E20000256E0905819B4010AE054FEF0E054FE46
:103E3000F0800CE054FE4401F0E054FE4401F0D167
:103E40005B9058A9E04480F07F08B1A89002B9E0E7
:103E50004408F09002BC7407F0C322C20D9002BB6C
:103E6000E054F7F02290581DE0FF5403FEBE020814
:103E70009002567401F08014EF540CFFBF080890B4
:103E800002567402F08005E4900256F0900256E06B
:103E90007002D322D2101226C7D2101226DF9058F9
:103EA0001CE054FEF0C211C212122792900256E09A
:103EB000905819B4010AE054FEF0E054FEF0800C72
:103EC000E054FE4401F0E054FE4401F0D15B900266
:103ED000BC7407F0C32290581DE0540F6006900296
:103EE000BC7407F09002BCE07007A20F921102268A
:103EF0003290581DE0540F70227F14EF60091F901C
:103F0000581DE0540F60F4EF70119004A5E0247880
:103F1000FFE433C313EF1390028BF090028BE07039
:103F20002912252DD3EF9498EE9400401D1272DDD6
:103F3000907EB2E030E20A120FF6BF03047F0480E5
:103F400006B1E840057F071225BC229002DAE03076
:103F5000E00B7D0130E6027D02AE05800D9002DAB5
:103F6000E07D0230E6027D01AE059058F4E0FD20D0
:103F7000E61274DA2EF582E43402F583E030E304CD
:103F80007F088031ED20E51274DA2EF582E43402E8
:103F9000F583E030E2047F04801B9058F4E020E7D2
:103FA0001274DA2EF582E43402F583E030E4047F03
:103FB000108002E4FF228D2E8B2B8A2C892D12017A
:103FC00004FF541FF52FEFC413135403F530E4F529
:103FD00031753201753301E5306003024B67E52F1F
:103FE00024FE700302412E14700302424114700338
:103FF00002436B1470030247621470030248BE242C
:10400000F670030244CE14700302462124106003AC
:10401000024AE6AB2BAA2CA92D12010454E044015C
:1040200012014AAB2BAA2CA92D12010454DF120154
:104030004AAB2BAA2CA92D120104543F12014AAB02
:104040002BE52D2401F9E4352CFA12010454F81261
:10405000014A54E712014A90022CE07F00B40202A8
:104060007F01EF5403C43354E0FFAB2BE52D240153
:10407000F9E4352CFA120104549F4F12014A44808E
:1040800012014AAB2BAA2CA92D90000312011D90FE
:10409000000212011DFFE92402F9E43AFA120104B8
:1040A000EF12014AAB2BAA2CA92D90000312011D7F
:1040B000FE90000212011DEEFFE92403F9E43AFA32
:1040C000120104E4EF12014A30020B90022CE0646A
:1040D0000260030248B9900319E075F004A4FFAE32
:1040E000F0E52D2404F9E4352CA801FCAD2B7B016F
:1040F0007A0279C01200DE90022CE0B40126AB2BCC
:10410000E52D2406F9E4352CFA120104547F12013E
:104110004AAB2BE52D2407F9E4352CFA120104549F
:10412000FC12014A900319E004F532024B10AB2B4C
:10413000AA2CA92D12010454E0440212014AAB2B0F
:10414000AA2CA92D12010454DF12014AAB2BAA2C70
:10415000A92D120104543F12014AAB2BE52D240175
:10416000F9E4352CFA12010454F812014A54E7120A
:10417000014A90022CE07F00B402027F01EF540359
:10418000C43354E0FFAB2BE52D2401F9E4352CFAC0
:10419000120104549F4F12014A448012014AAB2B72
:1041A000AA2CA92D90000312011D90000212011DDE
:1041B000FFE92402F9E43AFA120104EF12014AABD2
:1041C0002BAA2CA92D90000312011DFE90000212B3
:1041D000011DEEFFE92403F9E43AFA120104EF129B
:1041E000014A9002C3E030E25530020890022CE010
:1041F0006402704AE52D2404F9E4352CA801FCADD5
:104200002B7B017A03795A7E007F041200DE900333
:104210005BE0FE90035AE0FDED4E60197E007F04E6
:104220007D00AB2BE52D2408F9E4352CFA1205D8D6
:104230007532038003753202123C35024B1002487E
:10424000B9AB2BAA2CA92D12010454E0440312018E
:104250004AAB2BAA2CA92D12010454DF12014AAB40
:104260002BAA2CA92D120104543F12014AAB2BE5B5
:104270002D2401F9E4352CFA12010454F812014AF4
:1042800054E712014A90022CE07F00B402027F0141
:10429000EF5403C43354E0FFAB2BE52D2401F9E4C4
:1042A000352CFA120104549F4F12014A4480120126
:1042B0004AAB2BAA2CA92D90000312011D900002DD
:1042C00012011DFFE92402F9E43AFA120104EF1287
:1042D000014AAB2BAA2CA92D90000312011DFE90C0
:1042E000000212011DEEFFE92403F9E43AFA12017B
:1042F00004EF12014A9002C3E030E26C30020890F1
:10430000022CE064027061AB2BAA2CA92D90000353
:1043100012011DFE90000212011DFDEDFFBEFF1EE9
:10432000BF011BE92404F9E43AA801FCAD037B01B9
:104330007A0379547E007F041200DE024AB6AB2B6A
:10434000AA2CA92D90000312011DFE90000212015B
:104350001DFDEDFF900317E0B5060AA3E0B50705C4
:10436000AD2E12590E024AB60248B9AB2BAA2CA99F
:104370002D90000112011D5407F5316401707C90ED
:1043800002C3E030E27530020890022CE064027053
:104390006A90000312011DFE90000212011DFD7CB7
:1043A00000ED64017002EEF470179058A9E04480AB
:1043B000F0907E80E054BFF0900358E04402F0801B
:1043C0002EAB2BAA2CA92D90000312011D4CFEED43
:1043D000FF900317E0B50617A3E0B5071290035945
:1043E000E04401F0754319E4F5447D041232177579
:1043F0003301E4900254F0A3F08003753302AB2B39
:10440000AA2CA92D12010454E0440412014AAB2B3A
:10441000AA2CA92D12010454DF12014AAB2BAA2C9D
:10442000A92D120104543F12014AAB2BE52D2401A2
:10443000F9E4352CFA12010454F812014A54E71237
:10444000014A90022CE07F00B402027F01EF540386
:10445000C43354E0FFAB2BE52D2401F9E4352CFAED
:10446000120104549F4F12014A448012014AAB2B9F
:10447000AA2CA92D90000312011D90000212011D0B
:10448000FFE92402F9E43AFA120104EF12014AABFF
:104490002BAA2CA92D90000312011DFE90000212E0
:1044A000011DEEFFE92403F9E43AFA120104EF12C8
:1044B000014AE5315407FFAB2BE52D2401F9E43522
:1044C0002CFA12010454F84F12014A024B10AB2B84
:1044D000AA2CA92D90000312011DFE9000021201CA
:1044E0001DFDED64017002EEF46002A1FA120104F8
:1044F00054E0441012014AAB2BAA2CA92D1201043E
:1045000054DF12014AAB2BAA2CA92D120104543FEF
:1045100012014AAB2BE52D2401F9E4352CFA1201E6
:104520000454F812014A54E712014A90022CE07F29
:1045300000B402027F01EF5403C43354E0FFAB2BFD
:10454000E52D2401F9E4352CFA120104549F4F1291
:10455000014A448012014AAB2BAA2CA92D900003DA
:1045600012011D90000212011DFFE92402F9E43A34
:10457000FA120104EF12014AAB2BAA2CA92D9000CC
:104580000312011DFE90000212011DEEFFE924033B
:10459000F9E43AFA120104EF12014A90032AE054B6
:1045A0007FF0A3E054FEF090032AE0FF907E80E0CD
:1045B0005480C41313135401C43333335480FEEFB7
:1045C0004E90032AF0A3E0F0E52D2404F9E4352C05
:1045D000A801FCAD2B7B017A03792A7E007F0412AF
:1045E00000DEAB2BE52D2401F9E4352CFA12010491
:1045F00054F8440112014A024AB6AB2BAA2CA92D49
:1046000090000312011DFE90000212011DFDEDFF3E
:10461000900317E0B50607A3E0B50702E15702488B
:10462000B9AB2BAA2CA92D90000312011DFE9000FE
:104630000212011DFDED64017002EEF46002E1352D
:10464000E92404F9E43AFA123D959058A9E0547F20
:10465000F0AB2BAA2CA92D12010454E04411120135
:104660004AAB2BAA2CA92D12010454DF12014AAB2C
:104670002BAA2CA92D120104543F12014AAB2BE5A1
:104680002D2401F9E4352CFA12010454F812014AE0
:1046900054E712014A90022CE07F00B402027F012D
:1046A000EF5403C43354E0FFAB2BE52D2401F9E4B0
:1046B000352CFA120104549F4F12014A4480120112
:1046C0004AAB2BAA2CA92D90000312011D900002C9
:1046D00012011DFFE92402F9E43AFA120104EF1273
:1046E000014AAB2BAA2CA92D90000312011DFE90AC
:1046F000000212011DEEFFE92403F9E43AFA120167
:1047000004EF12014AAB2BE52D2401F9E4352CFA14
:1047100012010454F8440112014A900358E0440184
:10472000F0AB2BAA2CA92D754319E4F5447D041296
:104730003217024B10AB2BAA2CA92D9000031201AB
:104740001DFE90000212011DFDEDFF900317E0B564
:10475000060DA3E0B50708AD2E12590E024B10024C
:1047600048B9900358E020E1030248B9AB2BAA2CCA
:10477000A92D90000112011D5407F53112010454B6
:10478000E0440512014AAB2BAA2CA92D12010454B6
:10479000DF12014AAB2BAA2CA92D120104543F129F
:1047A000014AAB2BE52D2401F9E4352CFA12010462
:1047B00054F812014A54E712014A90022CE07F009B
:1047C000B402027F01EF5403C43354E0FFAB2BE586
:1047D0002D2401F9E4352CFA120104549F4F1201E3
:1047E0004A448012014AAB2BAA2CA92D9000031237
:1047F000011D90000212011DFFE92402F9E43AFABA
:10480000120104EF12014AAB2BAA2CA92D90000330
:1048100012011DFE90000212011DEEFFE92403F9B2
:10482000E43AFA120104EF12014AE5315407FFABF2
:104830002BE52D2401F9E4352CFA12010454F84F2C
:1048400012014AAB2BAA2CA92D90000312011DFEC8
:1048500090000212011DFDED64017002EEF4701E65
:104860009058A9E04480F075330175431AE4F5448B
:104870007D04123217900358E054FDF08034AB2BC6
:10488000AA2CA92D90000312011DFE900002120116
:104890001DFDEDFF900317E0B5061CA3E0B507175B
:1048A00075330175431AE4F5447D04123217900301
:1048B00059E054FEF0611080007533026110AB2B9B
:1048C000AA2CA92D90000312011DFE9000021201D6
:1048D0001DFDED64017002EEF4600241BB123C5E0E
:1048E000900358E0FF30E00241E420E10241E4207F
:1048F000020241E4123CE89058F0E020E50221EE8B
:104900009002FAE020E00221EE900337E0FF600B16
:1049100064046007EF6408600221EE900358E054DD
:10492000F34404F0AB2BAA2CA92D12010454E0444B
:104930001112014AAB2BAA2CA92D12010454DF122B
:10494000014AAB2BAA2CA92D120104543F12014A93
:10495000AB2BE52D2401F9E4352CFA12010454F8AF
:1049600012014A54E712014A90022CE07F00B4027F
:10497000027F01EF5403C43354E0FFAB2BE52D2439
:1049800001F9E4352CFA120104549F4F12014A44F4
:104990008012014AAB2BE52D2402F9E4352CFA12E2
:1049A0000104E40412014AAB2BE52D2403F9E4359C
:1049B0002CFA12010474FF12014AAB2BE52D2401DD
:1049C000F9E4352CFA12010454F8440112014AE5C5
:1049D0002D2404F9E4352CA801FCAD2B7B017A03CE
:1049E00079367E007F041200DEE4F53341B6AB2B4E
:1049F000AA2CA92D12010454E0441112014AAB2B38
:104A0000AA2CA92D12010454DF12014AAB2BAA2CA7
:104A1000A92D120104543F12014AAB2BE52D2401AC
:104A2000F9E4352CFA12010454F812014A54E71241
:104A3000014A90022CE07F00B402027F01EF540390
:104A4000C43354E0FFAB2BE52D2401F9E4352CFAF7
:104A5000120104549F4F12014A448012014AAB2BA9
:104A6000E52D2402F9E4352CFA120104E4041201C4
:104A70004AAB2BE52D2403F9E4352CFA120104741A
:104A8000FF12014AAB2BE52D2401F9E4352CFA1273
:104A9000010454F8440112014AE52D2404F9E435D7
:104AA0002CA801FCAD2B7B017A0379367E007F04B4
:104AB0001200DEE4F5337532028055AB2BAA2CA927
:104AC0002D90000312011DFE90000212011DFDED4C
:104AD000FF900317E0B5060CA3E0B50707AD2E1253
:104AE000590E80298027AB2BAA2CA92D90000312E8
:104AF000011DFE90000212011DFDEDFF900317E065
:104B0000B5060AA3E0B50705AD2E12590EE4F5323D
:104B1000AB2BAA2CA92D90000312011DFE900002C0
:104B200012011DFDEDFF7002EEF46018EF640170DC
:104B300002EEF4600F900317E06E7003A3E06F6065
:104B400003753302AB2BAA2CA92D120104543F127A
:104B5000014AAB2BAA2CA92D120104FFE533C43363
:104B60003354C04F025843E53064016003025810CB
:104B7000E52F24FE70028169147002E14514700370
:104B80000252951470030257361470030257C22460
:104B9000F670030254AA1470030256D02410600366
:104BA0000257C4E52E24FFFFE434FFFEEF7802C372
:104BB00033CE33CED8F9FFAB2BE52D2404F9E43501
:104BC0002CFA781A7C037D011200DE12B691AB2B11
:104BD000AA2CA92D12010454E0440212014AAB2B65
:104BE000AA2CA92D12010454DF12014AAB2BAA2CC6
:104BF000A92D120104543F12014AAB2BE52D2401CB
:104C0000F9E4352CFA12010454F812014A54E7125F
:104C1000014A90022CE07F00B402027F01EF5403AE
:104C2000C43354E0FFAB2BE52D2401F9E4352CFA15
:104C3000120104549F4F12014A448012014AAB2BC7
:104C4000E52D2402F9E4352CFA120104E412014A9C
:104C5000AB2BE52D2403F9E4352CFA12010474FF83
:104C600012014A123C350257EEAB2BE52D2404F914
:104C7000E4352CFAE52E1425E025E0FD754303E428
:104C8000F544123217E4F532753102E52E75F00263
:104C9000A4FFC3E5319FE5F06480F874809840027A
:104CA000A1A9AB2BAA2CA92D75F002E531A42401F2
:104CB000F582E435F0F58312011DFE75F002E53151
:104CC000A4F58285F08312011DFD7C00ED64017066
:104CD00002EEF46002A16C12010454E044031201DC
:104CE0004AAB2BAA2CA92D12010454DF12014AABA6
:104CF0002BAA2CA92D120104543F12014AAB2BE51B
:104D00002D2401F9E4352CFA12010454F812014A59
:104D100054E712014A90022CE07F00B402027F01A6
:104D2000EF5403C43354E0FFAB2BE52D2401F9E429
:104D3000352CFA120104549F4F12014A448012018B
:104D40004AAB2BE52D2402F9E4352CFA120104E4D8
:104D50000412014AAB2BE52D2403F9E4352CFA1299
:104D6000010474FF12014A7532018039900317E083
:104D70007002A3E0602FAB2BAA2CA92D75F002E5E1
:104D800031A42401F582E435F0F58312011D4CFEB7
:104D9000EDFF900317E0B5060CA3E0B507079003FD
:104DA00058E04420F00531818BE52EC39407500272
:104DB000C189E52E75F004A424FDF58274FF35F059
:104DC000F583AB2BAA2CA92D12011D7D00FCE52E2D
:104DD00024FFFFE434FFFEEF7802C333CE33CED896
:104DE000F9F5828E8312011DFFECFEED4F4E70022D
:104DF000C189AB2BAA2CA92D12010454E044021244
:104E0000014AAB2BAA2CA92D12010454DF12014A2E
:104E1000AB2BAA2CA92D120104543F12014AAB2B33
:104E2000E52D2401F9E4352CFA12010454F812019D
:104E30004A54E712014A90022CE07F00B402027F3C
:104E400001EF5403C43354E0FFAB2BE52D2401F9EB
:104E5000E4352CFA120104549F4F12014A44801287
:104E6000014AAB2BE52D2402F9E4352CFA1201049A
:104E7000E412014AAB2BE52D2403F9E4352CFA1298
:104E8000010474FF12014AE13FE53260030257EE6C
:104E9000900358E020E5030257EEAB2BAA2CA92D76
:104EA00012010454E0440312014AAB2BAA2CA92D91
:104EB00012010454DF12014AAB2BAA2CA92D1201B6
:104EC00004543F12014AAB2BE52D2401F9E4352CA3
:104ED000FA12010454F812014A54E712014A9002EE
:104EE0002CE07F00B402027F01EF5403C43354E08E
:104EF000FFAB2BE52D2401F9E4352CFA1201045403
:104F00009F4F12014A448012014A900317E0FEA30A
:104F1000E0FDAB2BE52D2402F9E4352CFA12010457
:104F2000ED12014AEEFFAB2BE52D2403F9E4352CFD
:104F3000FA120104EF12014A900358E054DFF075B1
:104F400032010257EEAB2BAA2CA92D75F004E531E6
:104F5000A42403F582E435F0F58312011DFE75F0FB
:104F600004E531A42402F582E435F0F58312011D35
:104F7000FDED64017002EEF4703A9058A9E04480AF
:104F8000F0E92404F9E43AFA78DA7C027D017E0043
:104F90007F041200DE900358E04440F0782E7C033A
:104FA0007D01AB2BAA2CA92D7E007F081200DE12FA
:104FB000B6808046AB2BAA2CA92D75F004E531A450
:104FC0002403F582E435F0F58312011DFE75F0042B
:104FD000E531A42402F582E435F0F58312011DFDCC
:104FE000EDFF900317E0B50611A3E0B5070C9003A1
:104FF00058E04480F0AD2E12590E900358E020E5A1
:10500000030250ABAB2BAA2CA92D12010454E0448F
:105010000312014AAB2BAA2CA92D12010454DF1252
:10502000014AAB2BAA2CA92D120104543F12014AAC
:10503000AB2BE52D2401F9E4352CFA12010454F8C8
:1050400012014A54E712014A90022CE07F00B40298
:10505000027F01EF5403C43354E0FFAB2BE52D2452
:1050600001F9E4352CFA120104549F4F12014A440D
:105070008012014A900317E0FEA3E0FDAB2BE52D63
:105080002402F9E4352CFA120104ED12014AEEFF74
:10509000AB2BE52D2403F9E4352CFA120104EF12B1
:1050A000014A900358E054DFF0E1EE900358E0200D
:1050B000E602413B123F4BEF7004F532E1EE900205
:1050C000DAE0FF30E007900354E020E10FEF20E149
:1050D000024138900354E020E00241389058F0E05B
:1050E00020E502218B9002FAE020E702218B900359
:1050F00058E054F34404F0AB2BAA2CA92D12010460
:1051000054E0440212014AAB2BAA2CA92D1201042F
:1051100054DF12014AAB2BAA2CA92D120104543FD3
:1051200012014AAB2BE52D2401F9E4352CFA1201CA
:105130000454F812014A54E712014A90022CE07F0D
:1051400000B402027F01EF5403C43354E0FFAB2BE1
:10515000E52D2401F9E4352CFA120104549F4F1275
:10516000014A448012014AAB2BE52D2402F9E435B3
:105170002CFA120104E412014AAB2BE52D2403F9A9
:10518000E4352CFA12010474FF4133AB2BAA2CA98D
:105190002D12010454E0440412014AAB2BAA2CA99D
:1051A0002D12010454DF12014AAB2BAA2CA92D1297
:1051B0000104543F12014AAB2BE52D2401F9E435DB
:1051C0002CFA12010454F812014A54E712014A90D1
:1051D000022CE07F00B402027F01EF5403C4335479
:1051E000E0FFAB2BE52D2401F9E4352CFA12010484
:1051F000549F4F12014A448012014AAB2BE52D24E3
:1052000002F9E4352CFA120104E40412014AAB2B32
:10521000E52D2403F9E4352CFA12010474FF120180
:105220004AAB2BE52D2401F9E4352CFA1201045484
:10523000F8440112014AE1EEE4F532900358E0200F
:10524000E702E1EEAB2BAA2CA92D12010454E04495
:105250000412014AAB2BAA2CA92D12010454DF120F
:10526000014AAB2BAA2CA92D120104543F12014A6A
:10527000AB2BE52D2401F9E4352CFA12010454F886
:1052800012014A54E712014A90022CE07F00B40256
:10529000027F016151AB2BAA2CA92D9000031201B2
:1052A0001DFE90000212011DFD7C00ED64017002E4
:1052B000EEF47017907E7EE054FDF0907E80E04426
:1052C00040F0900358E04402F0802EAB2BAA2CA9AA
:1052D0002D90000312011D4CFEEDFF900317E0B569
:1052E0000617A3E0B50712754319E4F5447D0412CF
:1052F0003217900359E04401F0900358E020E70290
:1053000061BEAB2BAA2CA92D12010454E044041257
:10531000014AAB2BAA2CA92D12010454DF12014A19
:10532000AB2BAA2CA92D120104543F12014AAB2B1E
:10533000E52D2401F9E4352CFA12010454F8120188
:105340004A54E712014A90022CE07F00B402027F27
:1053500001EF5403C43354E0FFAB2BE52D2401F9D6
:10536000E4352CFA120104549F4F12014A44801272
:10537000014A900317E0FEA3E0FDAB2BE52D2402CC
:10538000F9E4352CFA120104ED12014AEEFFAB2BC1
:10539000E52D2403F9E4352CFA120104EF12014A39
:1053A000AB2BE52D2401F9E4352CFA12010454F855
:1053B000440112014A900358E0547FF0E1EE90035B
:1053C00058E020E102E1C2AB2BAA2CA92D12010466
:1053D00054E0441012014AAB2BAA2CA92D1201044F
:1053E00054DF12014AAB2BAA2CA92D120104543F01
:1053F00012014AAB2BE52D2401F9E4352CFA1201F8
:105400000454F812014A54E712014A90022CE07F3A
:1054100000B402027F01EF5403C43354E0FFAB2B0E
:10542000E52D2401F9E4352CFA120104549F4F12A2
:10543000014A448012014AAB2BE52D2402F9E435E0
:105440002CFA120104E40412014AAB2BE52D2403CB
:10545000F9E4352CFA12010474FF12014AAB2BE572
:105460002D2401F9E4352CFA12010454F8440112F8
:10547000014A9002D0E054FCF0900354E0FD30E18A
:10548000099002D0E04401F0800BED30E00790027B
:10549000D0E04402F0E52D2404F9E4352CA801FC09
:1054A000AD2B7B017A0279D0A1CFAB2BAA2CA92DF1
:1054B00090000312011DFE90000212011DFDED641B
:1054C000017002EEF46002C1AAE52ED394015002ED
:1054D000C1A890000412011D54037002C1A8123C1F
:1054E0005E123CE89058F0E020E502A1DB9002FA61
:1054F000E020E002A1DB900337E0FF600B64046072
:1055000007EF64086002A1DB900358E054F3440401
:10551000F0AB2BAA2CA92D12010454E04411120166
:105520004AAB2BAA2CA92D12010454DF12014AAB5D
:105530002BAA2CA92D120104543F12014AAB2BE5D2
:105540002D2401F9E4352CFA12010454F812014A11
:1055500054E712014A90022CE07F00B402027F015E
:10556000EF5403C43354E0FFAB2BE52D2401F9E4E1
:10557000352CFA120104549F4F12014A4480120143
:105580004AAB2BE52D2402F9E4352CFA120104E490
:105590000412014AAB2BE52D2403F9E4352CFA1251
:1055A000010474FF12014AAB2BE52D2401F9E43507
:1055B0002CFA12010454F8440112014AE52D240486
:1055C000F9E4352CA801FCAD2B7B017A0379367EFA
:1055D000007F041200DE753202E1EEAB2BAA2CA98B
:1055E0002D12010454E0441112014AAB2BAA2CA93C
:1055F0002D12010454DF12014AAB2BAA2CA92D1243
:105600000104543F12014AAB2BE52D2401F9E43586
:105610002CFA12010454F812014A54E712014A907C
:10562000022CE07F00B402027F01EF5403C4335424
:10563000E0FFAB2BE52D2401F9E4352CFA1201042F
:10564000549F4F12014A448012014AAB2BE52D248E
:1056500002F9E4352CFA120104E40412014AAB2BDE
:10566000E52D2403F9E4352CFA12010474FF12012C
:105670004AAB2BE52D2401F9E4352CFA1201045430
:10568000F8440112014AE52D2404F9E4352CA8015F
:10569000FCAD2B7B017A0379367E007F041200DE9D
:1056A00075320212657DE1EEE1C2AB2BAA2CA92D69
:1056B00090000312011DFE90000212011DFDEDFF7E
:1056C000900317E0B50607A3E0B50702805C806190
:1056D000AB2BAA2CA92D90000312011DFE900002F5
:1056E00012011DFDED64017002EEF4701B90035871
:1056F000E04401F09058A9E0547FF0754319E4F5B7
:10570000447D04123217E1EBAB2BAA2CA92D90009B
:105710000312011DFE90000212011DFDEDFF90031A
:1057200017E0B5060CA3E0B50707AD2E12590EE140
:10573000EE753302E1EEAB2BAA2CA92D90000312DB
:10574000011DFE90000212011DFDED64017002EECC
:10575000F47033900358E054FEF054FDF054F3F02D
:1057600054EFF0122FA7AB2BAA2CA92D75431AE4E6
:10577000F5447D04123217E4F5329058F0E030E43D
:105780006D12129D8068AB2BAA2CA92D90000312DC
:10579000011DFE90000212011DFDEDFF900317E0B8
:1057A0006E7003A3E06F7046900359E054FEF0ABB7
:1057B0002BAA2CA92D75431AE4F5447D0412321747
:1057C000802C8027AB2BAA2CA92D90000312011D41
:1057D000FE90000212011DFDEDFF900317E0B506DB
:1057E0000AA3E0B50705AD2E12590EE4F532AB2B36
:1057F000AA2CA92D120104543F12014AAB2BAA2C4A
:10580000A92D12010412014A9002927405F0210B95
:10581000E53064037032E52F1424FD5007600A144C
:10582000600780057532018003E4F532AB2BAA2CAA
:10583000A92D120104543F12014AAB2BAA2CA92D09
:1058400012010412014A210BE53064026002210BAF
:10585000E52F24FE60050460022108900358E0440F
:1058600010F09058EFE070022108AB2BAA2CA92D64
:1058700012010454E0440112014AAB2BAA2CA92DB9
:1058800012010454DF12014AAB2BAA2CA92D1201DC
:1058900004543F12014AAB2BE52D2401F9E4352CC9
:1058A000FA12010454F812014A54E712014A549FB3
:1058B00012014A547F12014AAB2BE52D2402F9E470
:1058C000352CFA120104E412014AAB2BE52D240316
:1058D000F9E4352CFA12010474FF12014A9058EFD2
:1058E000E0AB2BAA2CA92D90000412015C900005BE
:1058F000E412015C900006E412015C900007E412DF
:10590000015C753202AF3222E4F532AF3222ED256E
:10591000E025E0FD754314E4F5441232177F0022C0
:10592000E4F52A900293E030E30454F7F022E51BFB
:1059300064026005E51BB40103E4F51B90022EE050
:10594000C4540775F004A42402FFE435F0FE7894F3
:105950007C027D017B017A02792D1200DE900230FB
:10596000E0C4131313540130E0167B017A027996D8
:1059700090022EE0FFC45407FD123FB68F2A410665
:105980009058F0E030E072900296E0FF64017039C8
:105990009058EFE0FE90029AE0B50609D209907E99
:1059A000B8E04410F09002967441F0E4A3F0A3F044
:1059B000A374FFF0A3EEF0E4A3F0A3F0A3F0900231
:1059C000827402F0751B01803DEFB441179058EFCF
:1059D000E0FF90029AE06F702DD209907EB8E0440B
:1059E00010F080227B017A02799690022EE0FFC4AB
:1059F0005407FD310E8F2A800D90022CE064027056
:105A000048FD7F108048E52AD39400403C90022F47
:105A1000E0C413135403FFBF0318900292E0600D1B
:105A2000751B03D20A90028A7428F08008E4F51BE3
:105A30008003751B01900282E52AF090022CE0B4ED
:105A40000207900293E04440F022E4FD7F108F347F
:105A50008D35753602E4F537E53424FB601A1460A1
:105A6000028056753704AF377E00786F7C037D0166
:105A70007B017A0379FB803E753704900362E0D3A3
:105A80009407AF377E00400E786F7C037D017BFF6B
:105A90007A0A799E8020C006C007900362E075F004
:105AA00004A4248BF9740335F0FA7B01786F7C032E
:105AB0007D01D007D0061200DEE53660157B017A45
:105AC00003796F85373CE4F53D85353EAF3491E38E
:105AD0008F36AF36228B2F8A308931E4F533EF24AD
